{
  "_format": "hh-sol-artifact-1",
  "contractName": "NFTMarketplace",
  "sourceName": "contracts/NFTmarketplace.sol",
  "abi": [
    {
      "inputs": [],
      "stateMutability": "nonpayable",
      "type": "constructor"
    },
    {
      "anonymous": false,
      "inputs": [
        {
          "indexed": true,
          "internalType": "address",
          "name": "owner",
          "type": "address"
        },
        {
          "indexed": true,
          "internalType": "address",
          "name": "approved",
          "type": "address"
        },
        {
          "indexed": true,
          "internalType": "uint256",
          "name": "tokenId",
          "type": "uint256"
        }
      ],
      "name": "Approval",
      "type": "event"
    },
    {
      "anonymous": false,
      "inputs": [
        {
          "indexed": true,
          "internalType": "address",
          "name": "owner",
          "type": "address"
        },
        {
          "indexed": true,
          "internalType": "address",
          "name": "operator",
          "type": "address"
        },
        {
          "indexed": false,
          "internalType": "bool",
          "name": "approved",
          "type": "bool"
        }
      ],
      "name": "ApprovalForAll",
      "type": "event"
    },
    {
      "anonymous": false,
      "inputs": [
        {
          "indexed": true,
          "internalType": "address",
          "name": "from",
          "type": "address"
        },
        {
          "indexed": true,
          "internalType": "address",
          "name": "to",
          "type": "address"
        },
        {
          "indexed": true,
          "internalType": "uint256",
          "name": "tokenId",
          "type": "uint256"
        }
      ],
      "name": "Transfer",
      "type": "event"
    },
    {
      "anonymous": false,
      "inputs": [
        {
          "indexed": true,
          "internalType": "uint256",
          "name": "tokenId",
          "type": "uint256"
        },
        {
          "indexed": false,
          "internalType": "address",
          "name": "seller",
          "type": "address"
        },
        {
          "indexed": false,
          "internalType": "address",
          "name": "owner",
          "type": "address"
        },
        {
          "indexed": false,
          "internalType": "uint256",
          "name": "price",
          "type": "uint256"
        },
        {
          "indexed": false,
          "internalType": "bool",
          "name": "sold",
          "type": "bool"
        }
      ],
      "name": "idMarketItemCreated",
      "type": "event"
    },
    {
      "inputs": [
        {
          "internalType": "address",
          "name": "to",
          "type": "address"
        },
        {
          "internalType": "uint256",
          "name": "tokenId",
          "type": "uint256"
        }
      ],
      "name": "approve",
      "outputs": [],
      "stateMutability": "nonpayable",
      "type": "function"
    },
    {
      "inputs": [
        {
          "internalType": "address",
          "name": "owner",
          "type": "address"
        }
      ],
      "name": "balanceOf",
      "outputs": [
        {
          "internalType": "uint256",
          "name": "",
          "type": "uint256"
        }
      ],
      "stateMutability": "view",
      "type": "function"
    },
    {
      "inputs": [
        {
          "internalType": "uint256",
          "name": "tokenId",
          "type": "uint256"
        }
      ],
      "name": "createMarketSale",
      "outputs": [],
      "stateMutability": "payable",
      "type": "function"
    },
    {
      "inputs": [
        {
          "internalType": "string",
          "name": "tokenURI",
          "type": "string"
        },
        {
          "internalType": "uint256",
          "name": "price",
          "type": "uint256"
        }
      ],
      "name": "createToken",
      "outputs": [
        {
          "internalType": "uint256",
          "name": "",
          "type": "uint256"
        }
      ],
      "stateMutability": "payable",
      "type": "function"
    },
    {
      "inputs": [],
      "name": "fetchItemsListed",
      "outputs": [
        {
          "components": [
            {
              "internalType": "uint256",
              "name": "tokenId",
              "type": "uint256"
            },
            {
              "internalType": "address payable",
              "name": "seller",
              "type": "address"
            },
            {
              "internalType": "address payable",
              "name": "owner",
              "type": "address"
            },
            {
              "internalType": "uint256",
              "name": "price",
              "type": "uint256"
            },
            {
              "internalType": "bool",
              "name": "sold",
              "type": "bool"
            }
          ],
          "internalType": "struct NFTMarketplace.MarketItem[]",
          "name": "",
          "type": "tuple[]"
        }
      ],
      "stateMutability": "view",
      "type": "function"
    },
    {
      "inputs": [],
      "name": "fetchMarketItem",
      "outputs": [
        {
          "components": [
            {
              "internalType": "uint256",
              "name": "tokenId",
              "type": "uint256"
            },
            {
              "internalType": "address payable",
              "name": "seller",
              "type": "address"
            },
            {
              "internalType": "address payable",
              "name": "owner",
              "type": "address"
            },
            {
              "internalType": "uint256",
              "name": "price",
              "type": "uint256"
            },
            {
              "internalType": "bool",
              "name": "sold",
              "type": "bool"
            }
          ],
          "internalType": "struct NFTMarketplace.MarketItem[]",
          "name": "",
          "type": "tuple[]"
        }
      ],
      "stateMutability": "view",
      "type": "function"
    },
    {
      "inputs": [],
      "name": "fetchMyNFT",
      "outputs": [
        {
          "components": [
            {
              "internalType": "uint256",
              "name": "tokenId",
              "type": "uint256"
            },
            {
              "internalType": "address payable",
              "name": "seller",
              "type": "address"
            },
            {
              "internalType": "address payable",
              "name": "owner",
              "type": "address"
            },
            {
              "internalType": "uint256",
              "name": "price",
              "type": "uint256"
            },
            {
              "internalType": "bool",
              "name": "sold",
              "type": "bool"
            }
          ],
          "internalType": "struct NFTMarketplace.MarketItem[]",
          "name": "",
          "type": "tuple[]"
        }
      ],
      "stateMutability": "view",
      "type": "function"
    },
    {
      "inputs": [
        {
          "internalType": "uint256",
          "name": "tokenId",
          "type": "uint256"
        }
      ],
      "name": "getApproved",
      "outputs": [
        {
          "internalType": "address",
          "name": "",
          "type": "address"
        }
      ],
      "stateMutability": "view",
      "type": "function"
    },
    {
      "inputs": [],
      "name": "getListingPrice",
      "outputs": [
        {
          "internalType": "uint256",
          "name": "",
          "type": "uint256"
        }
      ],
      "stateMutability": "view",
      "type": "function"
    },
    {
      "inputs": [
        {
          "internalType": "address",
          "name": "owner",
          "type": "address"
        },
        {
          "internalType": "address",
          "name": "operator",
          "type": "address"
        }
      ],
      "name": "isApprovedForAll",
      "outputs": [
        {
          "internalType": "bool",
          "name": "",
          "type": "bool"
        }
      ],
      "stateMutability": "view",
      "type": "function"
    },
    {
      "inputs": [],
      "name": "name",
      "outputs": [
        {
          "internalType": "string",
          "name": "",
          "type": "string"
        }
      ],
      "stateMutability": "view",
      "type": "function"
    },
    {
      "inputs": [
        {
          "internalType": "uint256",
          "name": "tokenId",
          "type": "uint256"
        }
      ],
      "name": "ownerOf",
      "outputs": [
        {
          "internalType": "address",
          "name": "",
          "type": "address"
        }
      ],
      "stateMutability": "view",
      "type": "function"
    },
    {
      "inputs": [
        {
          "internalType": "uint256",
          "name": "tokenId",
          "type": "uint256"
        },
        {
          "internalType": "uint256",
          "name": "price",
          "type": "uint256"
        }
      ],
      "name": "reSellToken",
      "outputs": [],
      "stateMutability": "payable",
      "type": "function"
    },
    {
      "inputs": [
        {
          "internalType": "address",
          "name": "from",
          "type": "address"
        },
        {
          "internalType": "address",
          "name": "to",
          "type": "address"
        },
        {
          "internalType": "uint256",
          "name": "tokenId",
          "type": "uint256"
        }
      ],
      "name": "safeTransferFrom",
      "outputs": [],
      "stateMutability": "nonpayable",
      "type": "function"
    },
    {
      "inputs": [
        {
          "internalType": "address",
          "name": "from",
          "type": "address"
        },
        {
          "internalType": "address",
          "name": "to",
          "type": "address"
        },
        {
          "internalType": "uint256",
          "name": "tokenId",
          "type": "uint256"
        },
        {
          "internalType": "bytes",
          "name": "data",
          "type": "bytes"
        }
      ],
      "name": "safeTransferFrom",
      "outputs": [],
      "stateMutability": "nonpayable",
      "type": "function"
    },
    {
      "inputs": [
        {
          "internalType": "address",
          "name": "operator",
          "type": "address"
        },
        {
          "internalType": "bool",
          "name": "approved",
          "type": "bool"
        }
      ],
      "name": "setApprovalForAll",
      "outputs": [],
      "stateMutability": "nonpayable",
      "type": "function"
    },
    {
      "inputs": [
        {
          "internalType": "bytes4",
          "name": "interfaceId",
          "type": "bytes4"
        }
      ],
      "name": "supportsInterface",
      "outputs": [
        {
          "internalType": "bool",
          "name": "",
          "type": "bool"
        }
      ],
      "stateMutability": "view",
      "type": "function"
    },
    {
      "inputs": [],
      "name": "symbol",
      "outputs": [
        {
          "internalType": "string",
          "name": "",
          "type": "string"
        }
      ],
      "stateMutability": "view",
      "type": "function"
    },
    {
      "inputs": [
        {
          "internalType": "uint256",
          "name": "tokenId",
          "type": "uint256"
        }
      ],
      "name": "tokenURI",
      "outputs": [
        {
          "internalType": "string",
          "name": "",
          "type": "string"
        }
      ],
      "stateMutability": "view",
      "type": "function"
    },
    {
      "inputs": [
        {
          "internalType": "address",
          "name": "from",
          "type": "address"
        },
        {
          "internalType": "address",
          "name": "to",
          "type": "address"
        },
        {
          "internalType": "uint256",
          "name": "tokenId",
          "type": "uint256"
        }
      ],
      "name": "transferFrom",
      "outputs": [],
      "stateMutability": "nonpayable",
      "type": "function"
    },
    {
      "inputs": [
        {
          "internalType": "uint256",
          "name": "_listingPrice",
          "type": "uint256"
        }
      ],
      "name": "updateListingPrice",
      "outputs": [],
      "stateMutability": "payable",
      "type": "function"
    }
  ],
  "bytecode": "0x60806040526608e1bc9bf040006009553480156200001c57600080fd5b506040518060400160405280601381526020017f4e4654204d657461766572736520546f6b656e000000000000000000000000008152506040518060400160405280600581526020017f4d594e465400000000000000000000000000000000000000000000000000000081525081600090816200009a919062000355565b508060019081620000ac919062000355565b5050503373ffffffffffffffffffffffffffffffffffffffff16600a60009054906101000a905050506200043c565b600081519050919050565b7f4e487b7100000000000000000000000000000000000000000000000000000000600052604160045260246000fd5b7f4e487b7100000000000000000000000000000000000000000000000000000000600052602260045260246000fd5b600060028204905060018216806200015d57607f821691505b60208210810362000173576200017262000115565b5b50919050565b60008190508160005260206000209050919050565b60006020601f8301049050919050565b600082821b905092915050565b600060088302620001dd7fffffffffffffffffffffffffffffffffffffffffffffffffffffffffffffffff826200019e565b620001e986836200019e565b95508019841693508086168417925050509392505050565b6000819050919050565b6000819050919050565b600062000236620002306200022a8462000201565b6200020b565b62000201565b9050919050565b6000819050919050565b620002528362000215565b6200026a62000261826200023d565b848454620001ab565b825550505050565b600090565b6200028162000272565b6200028e81848462000247565b505050565b5b81811015620002b657620002aa60008262000277565b60018101905062000294565b5050565b601f8211156200030557620002cf8162000179565b620002da846200018e565b81016020851015620002ea578190505b62000302620002f9856200018e565b83018262000293565b50505b505050565b600082821c905092915050565b60006200032a600019846008026200030a565b1980831691505092915050565b600062000345838362000317565b9150826002028217905092915050565b6200036082620000db565b67ffffffffffffffff8111156200037c576200037b620000e6565b5b62000388825462000144565b62000395828285620002ba565b600060209050601f831160018114620003cd5760008415620003b8578287015190505b620003c4858262000337565b86555062000434565b601f198416620003dd8662000179565b60005b828110156200040757848901518255600182019150602085019450602081019050620003e0565b8683101562000427578489015162000423601f89168262000317565b8355505b6001600288020188555050505b505050505050565b6143de806200044c6000396000f3fe60806040526004361061012a5760003560e01c806372b3b620116100ab578063ae677aa31161006f578063ae677aa3146103ea578063b88d4fde14610406578063be9af5361461042f578063c18763f71461044b578063c87b56dd14610476578063e985e9c5146104b35761012a565b806372b3b6201461031f57806385535b251461034f5780638fafd0211461036b57806395d89b4114610396578063a22cb465146103c15761012a565b806323b872dd116100f257806323b872dd1461022857806342842e0e1461025157806345f8fa801461027a5780636352211e146102a557806370a08231146102e25761012a565b806301ffc9a71461012f57806306fdde031461016c578063081812fc14610197578063095ea7b3146101d457806312e85585146101fd575b600080fd5b34801561013b57600080fd5b5061015660048036038101906101519190612c10565b6104f0565b6040516101639190612c58565b60405180910390f35b34801561017857600080fd5b506101816105d2565b60405161018e9190612d03565b60405180910390f35b3480156101a357600080fd5b506101be60048036038101906101b99190612d5b565b610664565b6040516101cb9190612dc9565b60405180910390f35b3480156101e057600080fd5b506101fb60048036038101906101f69190612e10565b6106aa565b005b34801561020957600080fd5b506102126107c1565b60405161021f9190612e5f565b60405180910390f35b34801561023457600080fd5b5061024f600480360381019061024a9190612e7a565b6107cb565b005b34801561025d57600080fd5b5061027860048036038101906102739190612e7a565b61082b565b005b34801561028657600080fd5b5061028f61084b565b60405161029c9190613023565b60405180910390f35b3480156102b157600080fd5b506102cc60048036038101906102c79190612d5b565b610b37565b6040516102d99190612dc9565b60405180910390f35b3480156102ee57600080fd5b5061030960048036038101906103049190613045565b610bbd565b6040516103169190612e5f565b60405180910390f35b610339600480360381019061033491906131a7565b610c74565b6040516103469190612e5f565b60405180910390f35b61036960048036038101906103649190613203565b610cb6565b005b34801561037757600080fd5b50610380610eab565b60405161038d9190613023565b60405180910390f35b3480156103a257600080fd5b506103ab611113565b6040516103b89190612d03565b60405180910390f35b3480156103cd57600080fd5b506103e860048036038101906103e3919061326f565b6111a5565b005b61040460048036038101906103ff9190612d5b565b6111bb565b005b34801561041257600080fd5b5061042d60048036038101906104289190613350565b61124e565b005b61044960048036038101906104449190612d5b565b6112b0565b005b34801561045757600080fd5b506104606114e8565b60405161046d9190613023565b60405180910390f35b34801561048257600080fd5b5061049d60048036038101906104989190612d5b565b6117d4565b6040516104aa9190612d03565b60405180910390f35b3480156104bf57600080fd5b506104da60048036038101906104d591906133d3565b6118e6565b6040516104e79190612c58565b60405180910390f35b60007f80ac58cd000000000000000000000000000000000000000000000000000000007bffffffffffffffffffffffffffffffffffffffffffffffffffffffff1916827bffffffffffffffffffffffffffffffffffffffffffffffffffffffff191614806105bb57507f5b5e139f000000000000000000000000000000000000000000000000000000007bffffffffffffffffffffffffffffffffffffffffffffffffffffffff1916827bffffffffffffffffffffffffffffffffffffffffffffffffffffffff1916145b806105cb57506105ca8261197a565b5b9050919050565b6060600080546105e190613442565b80601f016020809104026020016040519081016040528092919081815260200182805461060d90613442565b801561065a5780601f1061062f5761010080835404028352916020019161065a565b820191906000526020600020905b81548152906001019060200180831161063d57829003601f168201915b5050505050905090565b600061066f826119e4565b6004600083815260200190815260200160002060009054906101000a900473ffffffffffffffffffffffffffffffffffffffff169050919050565b60006106b582610b37565b90508073ffffffffffffffffffffffffffffffffffffffff168373ffffffffffffffffffffffffffffffffffffffff1603610725576040517f08c379a000000000000000000000000000000000000000000000000000000000815260040161071c906134e5565b60405180910390fd5b8073ffffffffffffffffffffffffffffffffffffffff16610744611a2f565b73ffffffffffffffffffffffffffffffffffffffff16148061077357506107728161076d611a2f565b6118e6565b5b6107b2576040517f08c379a00000000000000000000000000000000000000000000000000000000081526004016107a990613577565b60405180910390fd5b6107bc8383611a37565b505050565b6000600954905090565b6107dc6107d6611a2f565b82611af0565b61081b576040517f08c379a000000000000000000000000000000000000000000000000000000000815260040161081290613609565b60405180910390fd5b610826838383611b85565b505050565b6108468383836040518060200160405280600081525061124e565b505050565b606060006108596007611e7e565b905060008060005b83811015610901573373ffffffffffffffffffffffffffffffffffffffff16600b60006001846108919190613658565b815260200190815260200160002060010160009054906101000a900473ffffffffffffffffffffffffffffffffffffffff1673ffffffffffffffffffffffffffffffffffffffff16036108ee576001836108eb9190613658565b92505b80806108f99061368c565b915050610861565b5060008267ffffffffffffffff81111561091e5761091d61307c565b5b60405190808252806020026020018201604052801561095757816020015b610944612b47565b81526020019060019003908161093c5790505b50905060005b84811015610b2c573373ffffffffffffffffffffffffffffffffffffffff16600b600060018461098d9190613658565b815260200190815260200160002060010160009054906101000a900473ffffffffffffffffffffffffffffffffffffffff1673ffffffffffffffffffffffffffffffffffffffff1603610b195760006001826109e99190613658565b90506000600b60008381526020019081526020016000209050806040518060a0016040529081600082015481526020016001820160009054906101000a900473ffffffffffffffffffffffffffffffffffffffff1673ffffffffffffffffffffffffffffffffffffffff1673ffffffffffffffffffffffffffffffffffffffff1681526020016002820160009054906101000a900473ffffffffffffffffffffffffffffffffffffffff1673ffffffffffffffffffffffffffffffffffffffff1673ffffffffffffffffffffffffffffffffffffffff168152602001600382015481526020016004820160009054906101000a900460ff161515151581525050848681518110610afc57610afb6136d4565b5b6020026020010181905250600185610b149190613658565b945050505b8080610b249061368c565b91505061095d565b508094505050505090565b600080610b4383611e8c565b9050600073ffffffffffffffffffffffffffffffffffffffff168173ffffffffffffffffffffffffffffffffffffffff1603610bb4576040517f08c379a0000000000000000000000000000000000000000000000000000000008152600401610bab9061374f565b60405180910390fd5b80915050919050565b60008073ffffffffffffffffffffffffffffffffffffffff168273ffffffffffffffffffffffffffffffffffffffff1603610c2d576040517f08c379a0000000000000000000000000000000000000000000000000000000008152600401610c24906137e1565b60405180910390fd5b600360008373ffffffffffffffffffffffffffffffffffffffff1673ffffffffffffffffffffffffffffffffffffffff168152602001908152602001600020549050919050565b6000610c806007611ec9565b6000610c8c6007611e7e565b9050610c983382611edf565b610ca281856120fc565b610cac8184612169565b8091505092915050565b3373ffffffffffffffffffffffffffffffffffffffff16600b600084815260200190815260200160002060020160009054906101000a900473ffffffffffffffffffffffffffffffffffffffff1673ffffffffffffffffffffffffffffffffffffffff1614610d5a576040517f08c379a0000000000000000000000000000000000000000000000000000000008152600401610d5190613873565b60405180910390fd5b6009543414610d9e576040517f08c379a0000000000000000000000000000000000000000000000000000000008152600401610d9590613905565b60405180910390fd5b6000600b600084815260200190815260200160002060040160006101000a81548160ff02191690831515021790555080600b60008481526020019081526020016000206003018190555033600b600084815260200190815260200160002060010160006101000a81548173ffffffffffffffffffffffffffffffffffffffff021916908373ffffffffffffffffffffffffffffffffffffffff16021790555030600b600084815260200190815260200160002060020160006101000a81548173ffffffffffffffffffffffffffffffffffffffff021916908373ffffffffffffffffffffffffffffffffffffffff160217905550610e9c600861236c565b610ea7333084611b85565b5050565b60606000610eb96007611e7e565b90506000610ec76008611e7e565b610ed16007611e7e565b610edb9190613925565b90506000808267ffffffffffffffff811115610efa57610ef961307c565b5b604051908082528060200260200182016040528015610f3357816020015b610f20612b47565b815260200190600190039081610f185790505b50905060005b84811015611108573073ffffffffffffffffffffffffffffffffffffffff16600b6000600184610f699190613658565b815260200190815260200160002060020160009054906101000a900473ffffffffffffffffffffffffffffffffffffffff1673ffffffffffffffffffffffffffffffffffffffff16036110f5576000600182610fc59190613658565b90506000600b60008381526020019081526020016000209050806040518060a0016040529081600082015481526020016001820160009054906101000a900473ffffffffffffffffffffffffffffffffffffffff1673ffffffffffffffffffffffffffffffffffffffff1673ffffffffffffffffffffffffffffffffffffffff1681526020016002820160009054906101000a900473ffffffffffffffffffffffffffffffffffffffff1673ffffffffffffffffffffffffffffffffffffffff1673ffffffffffffffffffffffffffffffffffffffff168152602001600382015481526020016004820160009054906101000a900460ff1615151515815250508486815181106110d8576110d76136d4565b5b60200260200101819052506001856110f09190613658565b945050505b80806111009061368c565b915050610f39565b508094505050505090565b60606001805461112290613442565b80601f016020809104026020016040519081016040528092919081815260200182805461114e90613442565b801561119b5780601f106111705761010080835404028352916020019161119b565b820191906000526020600020905b81548152906001019060200180831161117e57829003601f168201915b5050505050905090565b6111b76111b0611a2f565b83836123c8565b5050565b600a60009054906101000a900473ffffffffffffffffffffffffffffffffffffffff1673ffffffffffffffffffffffffffffffffffffffff163373ffffffffffffffffffffffffffffffffffffffff161461124b576040517f08c379a0000000000000000000000000000000000000000000000000000000008152600401611242906139cb565b60405180910390fd5b50565b61125f611259611a2f565b83611af0565b61129e576040517f08c379a000000000000000000000000000000000000000000000000000000000815260040161129590613609565b60405180910390fd5b6112aa84848484612534565b50505050565b6000600b600083815260200190815260200160002060030154905080341461130d576040517f08c379a000000000000000000000000000000000000000000000000000000000815260040161130490613a5d565b60405180910390fd5b33600b600084815260200190815260200160002060020160006101000a81548173ffffffffffffffffffffffffffffffffffffffff021916908373ffffffffffffffffffffffffffffffffffffffff1602179055506001600b600084815260200190815260200160002060040160006101000a81548160ff0219169083151502179055506000600b600084815260200190815260200160002060020160006101000a81548173ffffffffffffffffffffffffffffffffffffffff021916908373ffffffffffffffffffffffffffffffffffffffff1602179055506113f16008611ec9565b6113fc303384611b85565b600a60009054906101000a900473ffffffffffffffffffffffffffffffffffffffff1673ffffffffffffffffffffffffffffffffffffffff166108fc6009549081150290604051600060405180830381858888f19350505050158015611466573d6000803e3d6000fd5b50600b600083815260200190815260200160002060010160009054906101000a900473ffffffffffffffffffffffffffffffffffffffff1673ffffffffffffffffffffffffffffffffffffffff166108fc349081150290604051600060405180830381858888f193505050501580156114e3573d6000803e3d6000fd5b505050565b606060006114f66007611e7e565b905060008060005b8381101561159e573373ffffffffffffffffffffffffffffffffffffffff16600b600060018461152e9190613658565b815260200190815260200160002060020160009054906101000a900473ffffffffffffffffffffffffffffffffffffffff1673ffffffffffffffffffffffffffffffffffffffff160361158b576001836115889190613658565b92505b80806115969061368c565b9150506114fe565b5060008267ffffffffffffffff8111156115bb576115ba61307c565b5b6040519080825280602002602001820160405280156115f457816020015b6115e1612b47565b8152602001906001900390816115d95790505b50905060005b848110156117c9573373ffffffffffffffffffffffffffffffffffffffff16600b600060018461162a9190613658565b815260200190815260200160002060020160009054906101000a900473ffffffffffffffffffffffffffffffffffffffff1673ffffffffffffffffffffffffffffffffffffffff16036117b65760006001826116869190613658565b90506000600b60008381526020019081526020016000209050806040518060a0016040529081600082015481526020016001820160009054906101000a900473ffffffffffffffffffffffffffffffffffffffff1673ffffffffffffffffffffffffffffffffffffffff1673ffffffffffffffffffffffffffffffffffffffff1681526020016002820160009054906101000a900473ffffffffffffffffffffffffffffffffffffffff1673ffffffffffffffffffffffffffffffffffffffff1673ffffffffffffffffffffffffffffffffffffffff168152602001600382015481526020016004820160009054906101000a900460ff161515151581525050848681518110611799576117986136d4565b5b60200260200101819052506001856117b19190613658565b945050505b80806117c19061368c565b9150506115fa565b508094505050505090565b60606117df826119e4565b60006006600084815260200190815260200160002080546117ff90613442565b80601f016020809104026020016040519081016040528092919081815260200182805461182b90613442565b80156118785780601f1061184d57610100808354040283529160200191611878565b820191906000526020600020905b81548152906001019060200180831161185b57829003601f168201915b505050505090506000611889612590565b9050600081510361189e5781925050506118e1565b6000825111156118d35780826040516020016118bb929190613ab9565b604051602081830303815290604052925050506118e1565b6118dc846125a7565b925050505b919050565b6000600560008473ffffffffffffffffffffffffffffffffffffffff1673ffffffffffffffffffffffffffffffffffffffff16815260200190815260200160002060008373ffffffffffffffffffffffffffffffffffffffff1673ffffffffffffffffffffffffffffffffffffffff16815260200190815260200160002060009054906101000a900460ff16905092915050565b60007f01ffc9a7000000000000000000000000000000000000000000000000000000007bffffffffffffffffffffffffffffffffffffffffffffffffffffffff1916827bffffffffffffffffffffffffffffffffffffffffffffffffffffffff1916149050919050565b6119ed8161260f565b611a2c576040517f08c379a0000000000000000000000000000000000000000000000000000000008152600401611a239061374f565b60405180910390fd5b50565b600033905090565b816004600083815260200190815260200160002060006101000a81548173ffffffffffffffffffffffffffffffffffffffff021916908373ffffffffffffffffffffffffffffffffffffffff160217905550808273ffffffffffffffffffffffffffffffffffffffff16611aaa83610b37565b73ffffffffffffffffffffffffffffffffffffffff167f8c5be1e5ebec7d5bd14f71427d1e84f3dd0314c0f7b2291e5b200ac8c7c3b92560405160405180910390a45050565b600080611afc83610b37565b90508073ffffffffffffffffffffffffffffffffffffffff168473ffffffffffffffffffffffffffffffffffffffff161480611b3e5750611b3d81856118e6565b5b80611b7c57508373ffffffffffffffffffffffffffffffffffffffff16611b6484610664565b73ffffffffffffffffffffffffffffffffffffffff16145b91505092915050565b8273ffffffffffffffffffffffffffffffffffffffff16611ba582610b37565b73ffffffffffffffffffffffffffffffffffffffff1614611bfb576040517f08c379a0000000000000000000000000000000000000000000000000000000008152600401611bf290613b4f565b60405180910390fd5b600073ffffffffffffffffffffffffffffffffffffffff168273ffffffffffffffffffffffffffffffffffffffff1603611c6a576040517f08c379a0000000000000000000000000000000000000000000000000000000008152600401611c6190613be1565b60405180910390fd5b611c778383836001612650565b8273ffffffffffffffffffffffffffffffffffffffff16611c9782610b37565b73ffffffffffffffffffffffffffffffffffffffff1614611ced576040517f08c379a0000000000000000000000000000000000000000000000000000000008152600401611ce490613b4f565b60405180910390fd5b6004600082815260200190815260200160002060006101000a81549073ffffffffffffffffffffffffffffffffffffffff02191690556001600360008573ffffffffffffffffffffffffffffffffffffffff1673ffffffffffffffffffffffffffffffffffffffff168152602001908152602001600020600082825403925050819055506001600360008473ffffffffffffffffffffffffffffffffffffffff1673ffffffffffffffffffffffffffffffffffffffff16815260200190815260200160002060008282540192505081905550816002600083815260200190815260200160002060006101000a81548173ffffffffffffffffffffffffffffffffffffffff021916908373ffffffffffffffffffffffffffffffffffffffff160217905550808273ffffffffffffffffffffffffffffffffffffffff168473ffffffffffffffffffffffffffffffffffffffff167fddf252ad1be2c89b69c2b068fc378daa952ba7f163c4a11628f55a4df523b3ef60405160405180910390a4611e798383836001612776565b505050565b600081600001549050919050565b60006002600083815260200190815260200160002060009054906101000a900473ffffffffffffffffffffffffffffffffffffffff169050919050565b6001816000016000828254019250508190555050565b600073ffffffffffffffffffffffffffffffffffffffff168273ffffffffffffffffffffffffffffffffffffffff1603611f4e576040517f08c379a0000000000000000000000000000000000000000000000000000000008152600401611f4590613c4d565b60405180910390fd5b611f578161260f565b15611f97576040517f08c379a0000000000000000000000000000000000000000000000000000000008152600401611f8e90613cb9565b60405180910390fd5b611fa5600083836001612650565b611fae8161260f565b15611fee576040517f08c379a0000000000000000000000000000000000000000000000000000000008152600401611fe590613cb9565b60405180910390fd5b6001600360008473ffffffffffffffffffffffffffffffffffffffff1673ffffffffffffffffffffffffffffffffffffffff16815260200190815260200160002060008282540192505081905550816002600083815260200190815260200160002060006101000a81548173ffffffffffffffffffffffffffffffffffffffff021916908373ffffffffffffffffffffffffffffffffffffffff160217905550808273ffffffffffffffffffffffffffffffffffffffff16600073ffffffffffffffffffffffffffffffffffffffff167fddf252ad1be2c89b69c2b068fc378daa952ba7f163c4a11628f55a4df523b3ef60405160405180910390a46120f8600083836001612776565b5050565b6121058261260f565b612144576040517f08c379a000000000000000000000000000000000000000000000000000000000815260040161213b90613d4b565b60405180910390fd5b806006600084815260200190815260200160002090816121649190613f17565b505050565b600081116121ac576040517f08c379a00000000000000000000000000000000000000000000000000000000081526004016121a390614035565b60405180910390fd5b60095434146121f0576040517f08c379a00000000000000000000000000000000000000000000000000000000081526004016121e7906140c7565b60405180910390fd5b6040518060a001604052808381526020013373ffffffffffffffffffffffffffffffffffffffff1681526020013073ffffffffffffffffffffffffffffffffffffffff16815260200182815260200160001515815250600b60008481526020019081526020016000206000820151816000015560208201518160010160006101000a81548173ffffffffffffffffffffffffffffffffffffffff021916908373ffffffffffffffffffffffffffffffffffffffff16021790555060408201518160020160006101000a81548173ffffffffffffffffffffffffffffffffffffffff021916908373ffffffffffffffffffffffffffffffffffffffff1602179055506060820151816003015560808201518160040160006101000a81548160ff021916908315150217905550905050612329333084611b85565b817fdebdb32cb5230ab727c9c361b16fdb2015df225c10e6a3e7f60ecd5dc5be4516333084600060405161236094939291906140e7565b60405180910390a25050565b600081600001549050600081116123b8576040517f08c379a00000000000000000000000000000000000000000000000000000000081526004016123af90614178565b60405180910390fd5b6001810382600001819055505050565b8173ffffffffffffffffffffffffffffffffffffffff168373ffffffffffffffffffffffffffffffffffffffff1603612436576040517f08c379a000000000000000000000000000000000000000000000000000000000815260040161242d906141e4565b60405180910390fd5b80600560008573ffffffffffffffffffffffffffffffffffffffff1673ffffffffffffffffffffffffffffffffffffffff16815260200190815260200160002060008473ffffffffffffffffffffffffffffffffffffffff1673ffffffffffffffffffffffffffffffffffffffff16815260200190815260200160002060006101000a81548160ff0219169083151502179055508173ffffffffffffffffffffffffffffffffffffffff168373ffffffffffffffffffffffffffffffffffffffff167f17307eab39ab6107e8899845ad3d59bd9653f200f220920489ca2b5937696c31836040516125279190612c58565b60405180910390a3505050565b61253f848484611b85565b61254b8484848461277c565b61258a576040517f08c379a000000000000000000000000000000000000000000000000000000000815260040161258190614276565b60405180910390fd5b50505050565b606060405180602001604052806000815250905090565b60606125b2826119e4565b60006125bc612590565b905060008151116125dc5760405180602001604052806000815250612607565b806125e684612903565b6040516020016125f7929190613ab9565b6040516020818303038152906040525b915050919050565b60008073ffffffffffffffffffffffffffffffffffffffff1661263183611e8c565b73ffffffffffffffffffffffffffffffffffffffff1614159050919050565b600181111561277057600073ffffffffffffffffffffffffffffffffffffffff168473ffffffffffffffffffffffffffffffffffffffff16146126e45780600360008673ffffffffffffffffffffffffffffffffffffffff1673ffffffffffffffffffffffffffffffffffffffff16815260200190815260200160002060008282546126dc9190613925565b925050819055505b600073ffffffffffffffffffffffffffffffffffffffff168373ffffffffffffffffffffffffffffffffffffffff161461276f5780600360008573ffffffffffffffffffffffffffffffffffffffff1673ffffffffffffffffffffffffffffffffffffffff16815260200190815260200160002060008282546127679190613658565b925050819055505b5b50505050565b50505050565b600061279d8473ffffffffffffffffffffffffffffffffffffffff166129d1565b156128f6578373ffffffffffffffffffffffffffffffffffffffff1663150b7a026127c6611a2f565b8786866040518563ffffffff1660e01b81526004016127e894939291906142eb565b6020604051808303816000875af192505050801561282457506040513d601f19601f82011682018060405250810190612821919061434c565b60015b6128a6573d8060008114612854576040519150601f19603f3d011682016040523d82523d6000602084013e612859565b606091505b50600081510361289e576040517f08c379a000000000000000000000000000000000000000000000000000000000815260040161289590614276565b60405180910390fd5b805181602001fd5b63150b7a0260e01b7bffffffffffffffffffffffffffffffffffffffffffffffffffffffff1916817bffffffffffffffffffffffffffffffffffffffffffffffffffffffff1916149150506128fb565b600190505b949350505050565b606060006001612912846129f4565b01905060008167ffffffffffffffff8111156129315761293061307c565b5b6040519080825280601f01601f1916602001820160405280156129635781602001600182028036833780820191505090505b509050600082602001820190505b6001156129c6578080600190039150507f3031323334353637383961626364656600000000000000000000000000000000600a86061a8153600a85816129ba576129b9614379565b5b04945060008503612971575b819350505050919050565b6000808273ffffffffffffffffffffffffffffffffffffffff163b119050919050565b600080600090507a184f03e93ff9f4daa797ed6e38ed64bf6a1f0100000000000000008310612a52577a184f03e93ff9f4daa797ed6e38ed64bf6a1f0100000000000000008381612a4857612a47614379565b5b0492506040810190505b6d04ee2d6d415b85acef81000000008310612a8f576d04ee2d6d415b85acef81000000008381612a8557612a84614379565b5b0492506020810190505b662386f26fc100008310612abe57662386f26fc100008381612ab457612ab3614379565b5b0492506010810190505b6305f5e1008310612ae7576305f5e1008381612add57612adc614379565b5b0492506008810190505b6127108310612b0c576127108381612b0257612b01614379565b5b0492506004810190505b60648310612b2f5760648381612b2557612b24614379565b5b0492506002810190505b600a8310612b3e576001810190505b80915050919050565b6040518060a0016040528060008152602001600073ffffffffffffffffffffffffffffffffffffffff168152602001600073ffffffffffffffffffffffffffffffffffffffff168152602001600081526020016000151581525090565b6000604051905090565b600080fd5b600080fd5b60007fffffffff0000000000000000000000000000000000000000000000000000000082169050919050565b612bed81612bb8565b8114612bf857600080fd5b50565b600081359050612c0a81612be4565b92915050565b600060208284031215612c2657612c25612bae565b5b6000612c3484828501612bfb565b91505092915050565b60008115159050919050565b612c5281612c3d565b82525050565b6000602082019050612c6d6000830184612c49565b92915050565b600081519050919050565b600082825260208201905092915050565b60005b83811015612cad578082015181840152602081019050612c92565b60008484015250505050565b6000601f19601f8301169050919050565b6000612cd582612c73565b612cdf8185612c7e565b9350612cef818560208601612c8f565b612cf881612cb9565b840191505092915050565b60006020820190508181036000830152612d1d8184612cca565b905092915050565b6000819050919050565b612d3881612d25565b8114612d4357600080fd5b50565b600081359050612d5581612d2f565b92915050565b600060208284031215612d7157612d70612bae565b5b6000612d7f84828501612d46565b91505092915050565b600073ffffffffffffffffffffffffffffffffffffffff82169050919050565b6000612db382612d88565b9050919050565b612dc381612da8565b82525050565b6000602082019050612dde6000830184612dba565b92915050565b612ded81612da8565b8114612df857600080fd5b50565b600081359050612e0a81612de4565b92915050565b60008060408385031215612e2757612e26612bae565b5b6000612e3585828601612dfb565b9250506020612e4685828601612d46565b9150509250929050565b612e5981612d25565b82525050565b6000602082019050612e746000830184612e50565b92915050565b600080600060608486031215612e9357612e92612bae565b5b6000612ea186828701612dfb565b9350506020612eb286828701612dfb565b9250506040612ec386828701612d46565b9150509250925092565b600081519050919050565b600082825260208201905092915050565b6000819050602082019050919050565b612f0281612d25565b82525050565b6000612f1382612d88565b9050919050565b612f2381612f08565b82525050565b612f3281612c3d565b82525050565b60a082016000820151612f4e6000850182612ef9565b506020820151612f616020850182612f1a565b506040820151612f746040850182612f1a565b506060820151612f876060850182612ef9565b506080820151612f9a6080850182612f29565b50505050565b6000612fac8383612f38565b60a08301905092915050565b6000602082019050919050565b6000612fd082612ecd565b612fda8185612ed8565b9350612fe583612ee9565b8060005b83811015613016578151612ffd8882612fa0565b975061300883612fb8565b925050600181019050612fe9565b5085935050505092915050565b6000602082019050818103600083015261303d8184612fc5565b905092915050565b60006020828403121561305b5761305a612bae565b5b600061306984828501612dfb565b91505092915050565b600080fd5b600080fd5b7f4e487b7100000000000000000000000000000000000000000000000000000000600052604160045260246000fd5b6130b482612cb9565b810181811067ffffffffffffffff821117156130d3576130d261307c565b5b80604052505050565b60006130e6612ba4565b90506130f282826130ab565b919050565b600067ffffffffffffffff8211156131125761311161307c565b5b61311b82612cb9565b9050602081019050919050565b82818337600083830152505050565b600061314a613145846130f7565b6130dc565b90508281526020810184848401111561316657613165613077565b5b613171848285613128565b509392505050565b600082601f83011261318e5761318d613072565b5b813561319e848260208601613137565b91505092915050565b600080604083850312156131be576131bd612bae565b5b600083013567ffffffffffffffff8111156131dc576131db612bb3565b5b6131e885828601613179565b92505060206131f985828601612d46565b9150509250929050565b6000806040838503121561321a57613219612bae565b5b600061322885828601612d46565b925050602061323985828601612d46565b9150509250929050565b61324c81612c3d565b811461325757600080fd5b50565b60008135905061326981613243565b92915050565b6000806040838503121561328657613285612bae565b5b600061329485828601612dfb565b92505060206132a58582860161325a565b9150509250929050565b600067ffffffffffffffff8211156132ca576132c961307c565b5b6132d382612cb9565b9050602081019050919050565b60006132f36132ee846132af565b6130dc565b90508281526020810184848401111561330f5761330e613077565b5b61331a848285613128565b509392505050565b600082601f83011261333757613336613072565b5b81356133478482602086016132e0565b91505092915050565b6000806000806080858703121561336a57613369612bae565b5b600061337887828801612dfb565b945050602061338987828801612dfb565b935050604061339a87828801612d46565b925050606085013567ffffffffffffffff8111156133bb576133ba612bb3565b5b6133c787828801613322565b91505092959194509250565b600080604083850312156133ea576133e9612bae565b5b60006133f885828601612dfb565b925050602061340985828601612dfb565b9150509250929050565b7f4e487b7100000000000000000000000000000000000000000000000000000000600052602260045260246000fd5b6000600282049050600182168061345a57607f821691505b60208210810361346d5761346c613413565b5b50919050565b7f4552433732313a20617070726f76616c20746f2063757272656e74206f776e6560008201527f7200000000000000000000000000000000000000000000000000000000000000602082015250565b60006134cf602183612c7e565b91506134da82613473565b604082019050919050565b600060208201905081810360008301526134fe816134c2565b9050919050565b7f4552433732313a20617070726f76652063616c6c6572206973206e6f7420746f60008201527f6b656e206f776e6572206f7220617070726f76656420666f7220616c6c000000602082015250565b6000613561603d83612c7e565b915061356c82613505565b604082019050919050565b6000602082019050818103600083015261359081613554565b9050919050565b7f4552433732313a2063616c6c6572206973206e6f7420746f6b656e206f776e6560008201527f72206f7220617070726f76656400000000000000000000000000000000000000602082015250565b60006135f3602d83612c7e565b91506135fe82613597565b604082019050919050565b60006020820190508181036000830152613622816135e6565b9050919050565b7f4e487b7100000000000000000000000000000000000000000000000000000000600052601160045260246000fd5b600061366382612d25565b915061366e83612d25565b925082820190508082111561368657613685613629565b5b92915050565b600061369782612d25565b91507fffffffffffffffffffffffffffffffffffffffffffffffffffffffffffffffff82036136c9576136c8613629565b5b600182019050919050565b7f4e487b7100000000000000000000000000000000000000000000000000000000600052603260045260246000fd5b7f4552433732313a20696e76616c696420746f6b656e2049440000000000000000600082015250565b6000613739601883612c7e565b915061374482613703565b602082019050919050565b600060208201905081810360008301526137688161372c565b9050919050565b7f4552433732313a2061646472657373207a65726f206973206e6f74206120766160008201527f6c6964206f776e65720000000000000000000000000000000000000000000000602082015250565b60006137cb602983612c7e565b91506137d68261376f565b604082019050919050565b600060208201905081810360008301526137fa816137be565b9050919050565b7f4f6e6c79206974656d206f776e65722063616e20706572666f726d207468697360008201527f206f7065726174696f6e00000000000000000000000000000000000000000000602082015250565b600061385d602a83612c7e565b915061386882613801565b604082019050919050565b6000602082019050818103600083015261388c81613850565b9050919050565b7f5072696365206d757374206265206174206c6561737420657175616c20746f2060008201527f6c697374696e6720707269636500000000000000000000000000000000000000602082015250565b60006138ef602d83612c7e565b91506138fa82613893565b604082019050919050565b6000602082019050818103600083015261391e816138e2565b9050919050565b600061393082612d25565b915061393b83612d25565b925082820390508181111561395357613952613629565b5b92915050565b7f4f6e6c79206f776e6572206f6620746865204d61726b6574706c61636520636160008201527f6e206368616e676520746865206c697374696e67207072696365000000000000602082015250565b60006139b5603a83612c7e565b91506139c082613959565b604082019050919050565b600060208201905081810360008301526139e4816139a8565b9050919050565b7f506c65617365207375626d6974207468652061736b696e67207072696365206960008201527f6e206f7264657220746f20636f6d706c65746520746865207075726368617365602082015250565b6000613a47604083612c7e565b9150613a52826139eb565b604082019050919050565b60006020820190508181036000830152613a7681613a3a565b9050919050565b600081905092915050565b6000613a9382612c73565b613a9d8185613a7d565b9350613aad818560208601612c8f565b80840191505092915050565b6000613ac58285613a88565b9150613ad18284613a88565b91508190509392505050565b7f4552433732313a207472616e736665722066726f6d20696e636f72726563742060008201527f6f776e6572000000000000000000000000000000000000000000000000000000602082015250565b6000613b39602583612c7e565b9150613b4482613add565b604082019050919050565b60006020820190508181036000830152613b6881613b2c565b9050919050565b7f4552433732313a207472616e7366657220746f20746865207a65726f2061646460008201527f7265737300000000000000000000000000000000000000000000000000000000602082015250565b6000613bcb602483612c7e565b9150613bd682613b6f565b604082019050919050565b60006020820190508181036000830152613bfa81613bbe565b9050919050565b7f4552433732313a206d696e7420746f20746865207a65726f2061646472657373600082015250565b6000613c37602083612c7e565b9150613c4282613c01565b602082019050919050565b60006020820190508181036000830152613c6681613c2a565b9050919050565b7f4552433732313a20746f6b656e20616c7265616479206d696e74656400000000600082015250565b6000613ca3601c83612c7e565b9150613cae82613c6d565b602082019050919050565b60006020820190508181036000830152613cd281613c96565b9050919050565b7f45524337323155524953746f726167653a2055524920736574206f66206e6f6e60008201527f6578697374656e7420746f6b656e000000000000000000000000000000000000602082015250565b6000613d35602e83612c7e565b9150613d4082613cd9565b604082019050919050565b60006020820190508181036000830152613d6481613d28565b9050919050565b60008190508160005260206000209050919050565b60006020601f8301049050919050565b600082821b905092915050565b600060088302613dcd7fffffffffffffffffffffffffffffffffffffffffffffffffffffffffffffffff82613d90565b613dd78683613d90565b95508019841693508086168417925050509392505050565b6000819050919050565b6000613e14613e0f613e0a84612d25565b613def565b612d25565b9050919050565b6000819050919050565b613e2e83613df9565b613e42613e3a82613e1b565b848454613d9d565b825550505050565b600090565b613e57613e4a565b613e62818484613e25565b505050565b5b81811015613e8657613e7b600082613e4f565b600181019050613e68565b5050565b601f821115613ecb57613e9c81613d6b565b613ea584613d80565b81016020851015613eb4578190505b613ec8613ec085613d80565b830182613e67565b50505b505050565b600082821c905092915050565b6000613eee60001984600802613ed0565b1980831691505092915050565b6000613f078383613edd565b9150826002028217905092915050565b613f2082612c73565b67ffffffffffffffff811115613f3957613f3861307c565b5b613f438254613442565b613f4e828285613e8a565b600060209050601f831160018114613f815760008415613f6f578287015190505b613f798582613efb565b865550613fe1565b601f198416613f8f86613d6b565b60005b82811015613fb757848901518255600182019150602085019450602081019050613f92565b86831015613fd45784890151613fd0601f891682613edd565b8355505b6001600288020188555050505b505050505050565b7f5072696365206d7573742062652061746c656173742031000000000000000000600082015250565b600061401f601783612c7e565b915061402a82613fe9565b602082019050919050565b6000602082019050818103600083015261404e81614012565b9050919050565b7f5072696365206d75737420626520657175616c20746f206c697374696e67207060008201527f7269636500000000000000000000000000000000000000000000000000000000602082015250565b60006140b1602483612c7e565b91506140bc82614055565b604082019050919050565b600060208201905081810360008301526140e0816140a4565b9050919050565b60006080820190506140fc6000830187612dba565b6141096020830186612dba565b6141166040830185612e50565b6141236060830184612c49565b95945050505050565b7f436f756e7465723a2064656372656d656e74206f766572666c6f770000000000600082015250565b6000614162601b83612c7e565b915061416d8261412c565b602082019050919050565b6000602082019050818103600083015261419181614155565b9050919050565b7f4552433732313a20617070726f766520746f2063616c6c657200000000000000600082015250565b60006141ce601983612c7e565b91506141d982614198565b602082019050919050565b600060208201905081810360008301526141fd816141c1565b9050919050565b7f4552433732313a207472616e7366657220746f206e6f6e20455243373231526560008201527f63656976657220696d706c656d656e7465720000000000000000000000000000602082015250565b6000614260603283612c7e565b915061426b82614204565b604082019050919050565b6000602082019050818103600083015261428f81614253565b9050919050565b600081519050919050565b600082825260208201905092915050565b60006142bd82614296565b6142c781856142a1565b93506142d7818560208601612c8f565b6142e081612cb9565b840191505092915050565b60006080820190506143006000830187612dba565b61430d6020830186612dba565b61431a6040830185612e50565b818103606083015261432c81846142b2565b905095945050505050565b60008151905061434681612be4565b92915050565b60006020828403121561436257614361612bae565b5b600061437084828501614337565b91505092915050565b7f4e487b7100000000000000000000000000000000000000000000000000000000600052601260045260246000fdfea264697066735822122013fb78050242862f3f1745069c486731ffc27a0863c73d400d02c8b137997d3464736f6c63430008110033",
  "linkReferences": {},
  "deployedLinkReferences": {}
}